:020000040800F2
:10000000280600200101000899340008ED2D0008A1
:1000100095340008AD020008953E0008000000007D
:10002000000000000000000000000000893E000801
:10003000BD02000800000000813B00088D3E000862
:100040001B0100081B0100081B0100081B01000820
:100050001B0100081B0100081B0100081B01000810
:100060001B0100081B0100081B010008B102000869
:100070001B0100081B0100081B0100081B010008F0
:100080001B0100081B010008750100081B01000886
:100090001B0100081B0100081B0100081B010008D0
:1000A0001B0100081B0100081B0100081B010008C0
:1000B0001B0100081B0100081B0100081B010008B0
:1000C0001B0100081B0100081B0100081B010008A0
:1000D0001B0100081B0100081B0100081B01000890
:1000E0001B0100081B0100081B010008DFF80CD0F1
:1000F00000F02EF8004800471941000828060020AB
:100100000648804706480047FEE7FEE7FEE7FEE7B1
:10011000FEE7FEE7FEE7FEE7FEE7FEE7913E0008AA
:10012000ED00000830B50B460146002020220124D6
:1001300009E021FA02F59D4205D303FA02F5491BB5
:1001400004FA02F52844151EA2F10102F1DC30BDCB
:10015000064C074D06E0E06840F0010394E8070014
:1001600098471034AC42F6D3FFF7C4FF705D000827
:10017000905D000840F2BC00C2F2000000F078B9C7
:100180000146406A826A12F0500F03D0006A026B87
:10019000084610470168826A42F4007282628968E8
:1001A00001F46021B1F5602F01D1017B11B100F0A4
:1001B00059B900BF816A21F480718162816AC904E2
:1001C00048BF00F04FB9816A41F00101816200F03F
:1001D00049B90000406A816A41F040018162C16A08
:1001E00041F00401C16200F041B90000406A00F032
:1001F0003BB90000B0B582B00446002001902168F0
:100200008A68D2074FD1886840F00100886040F2C8
:100210002800C2F2000000684DF68361C4F21B3171
:10022000A0FB0101880C01900198A0B10198013850
:100230000190019878B1019801380190019850B16E
:10024000019801380190019828B101980138019076
:1002500001980028EAD100F093FD21688968C90758
:100260001CD1054603E000BF8068C0071AD100F02A
:1002700087FD411B20680329F6D38168C907F3D1A4
:10028000A06A40F01000A062E06A40F00100E06265
:10029000002084F82400012002B0B0BD002002B08C
:1002A000B0BD00BF002002B0B0BD0000FEE70000FE
:1002B00040F2EC00C2F2000000F0ECBA704700001F
:1002C000EFF3108072B600BFFEE700007047000039
:1002D00010B581B00022009290F82420012A03D1A9
:1002E0000221084601B010BD4B680122062B80F8A0
:1002F000242015D8026803EB8303A3F1050E1F2306
:10030000D2F834C003FA0EF40B682CEA040C03FA9A
:100310000EF444EA0C045463092B17D937E000BFEC
:1003200002680C2B20D803EB8303A3F123041F23C3
:10033000D2F830C003FA04FE0B682CEA0E0C03FA64
:1003400004F444EA0C041463092B20D8D2F810C03A
:1003500003EB4303072489689C402CEA040499407A
:1003600021431161002136E003EB8303A3F1410433
:100370001F23D2F82CC003FA04FE0B682CEA0E0CE3
:1003800003FA04F444EA0C04D462092BDED903EB2B
:100390004304D2F80CC0A4F11E0E0724896804FAA5
:1003A0000EF42CEA040401FA0EF1214323F00104B7
:1003B000102CD1600ED142F20841C4F20101A1F12A
:1003C0000804A2420ED0816A41F02001816201211D
:1003D00001E000BF0021002280F82420084601B07F
:1003E00010BD00BF0A68120230D40A68102B42F414
:1003F00000020A602CD140F22801C2F20001096813
:100400004DF68362C4F21B32A1FB0212910C01EB88
:100410008101490000910099E1B1009901390091F1
:100420000099C9B10099013900910099B1B10099C1
:1004300001390091009999B1009901390091009911
:1004400000294FF00001E8D1C5E700BF0021C2E755
:100450000021C0E70021BEE70021BCE70021BAE788
:100460000021B8E7704700007047000070470000A7
:1004700010B5044600684168890644BF01685FEA18
:1004800081710BD44168090644BF01685FEA41717C
:100490002AD4416849065BD410BD00BFA16AC906D1
:1004A00003D4A16A41F40071A162816801F4602162
:1004B000B1F5602F10D1217B71B9416821F0200185
:1004C0004160A06A20F48070A062A06AC00403D4D6
:1004D000A06A40F00100A0622046FFF7C3FF206839
:1004E0006FF012010160CDE7A16AC90603D4A16AC9
:1004F00041F40051A162816801F4E041B1F5E04F9F
:1005000010D1416821F080014160A06A20F4805040
:10051000A062A06AC00511D4A06A40F00100A062E8
:100520000CE000BF4168490508D4816801F46021EE
:10053000B1F5602F02D1217B0029E2D02046FFF7E0
:10054000C5FE20686FF00C01016041684906A3D523
:100550000068C00708BF10BDA06A40F48030A062E8
:10056000204600F0B3F820686FF00101016010BD73
:10057000B0B5002800F0A8800446806A20B1216848
:100580008868C0070BD114E00020E06284F82400E2
:10059000204600F09DF821688868C00709D0886867
:1005A00020F00100886000F0EBFB21688A68D20728
:1005B00026D1A06AC0063AD4A06A41F20212904342
:1005C0000230A062E069D4E9013240EA030C531E14
:1005D000B3FA83F35D091346B2F5807F18BF2B028F
:1005E000207D257B01284CEA450030D135B3A56A32
:1005F00045F02005A562E56A45F00105E56226E0C3
:10060000054602E08868C007D3D000F0B9FB401B64
:1006100021680328F6D38868C007F3D0A06A40F0A9
:100620001000A062E06A40F00100E062A06AA06AE7
:1006300040F01000A0620120B0BD00BFD4F818C087
:100640004EF60005CFF6FF7505EB4C352B434D6894
:10065000B2F5807F25F4694543EA05034B608B685A
:100660004FF2FD75CFF6E17503EA050343EA000397
:100670008B6001D0012A07D122690023CFF6F073E5
:1006800003EB025201E000BF0022CB6A23F47003A7
:100690001A43CA62896840F6FE62CFF61F721140A3
:1006A000814207D10020E062A16A012262F30101C8
:1006B000A162B0BDA06A40F0100020F00200A0626C
:1006C000E06A40F00100E0620120B0BD7047000028
:1006D00070B586B0044640F60000C4F201002168FF
:1006E00000F5E052002691420596049602D006B02D
:1006F00070BD00BF41F21801C4F202010A6842F461
:1007000000720A600A6802F400720192019A0A6893
:1007100042F004020A60096801F0040101910199A4
:10072000072102910321039102A900F01FFA40F270
:10073000EC050820C2F20005C4F202004FF48072FA
:10074000C5E9000605F1100080214FF480634CC01C
:100750002846C5E90261EE6100F06AF9002818BF79
:10076000FFF7AEFD12200021002225626C6200F02E
:100770006DFD122000F05AFD06B070BD70B5154633
:100780000446006842F60002C4F2010290420E469E
:1007900005D042F20041C4F20101884209D142F27F
:1007A0000440C4F20100006810F4702F1CBF012047
:1007B00070BD94F82400012804BF022070BD012000
:1007C00084F824002046FFF715FD18B1002184F8B5
:1007D000241070BD42F204402168A26AC4F20100F4
:1007E00040F601739A4300F57F7302F580729942D7
:1007F000A26243D0A06A20F48010A062486840053D
:1008000004D5A06A012262F30D30A062A26A002022
:10081000D2044FF0000244BFE26A22F00602E26214
:1008200084F82400206A40F28112C0F6000240F2EF
:10083000ED1340F2D51C00F1280EC0F60003C0F6FF
:10084000000C8EE80C106FF002020A608A682B46DA
:1008500042F480728A604C31324600F025F92068FB
:10086000816801F460228168B2F5602F0CBF41F409
:10087000A00141F480118160002070BD026812F473
:10088000702FB7D0A26A42F48012A26200684005BD
:10089000BCD5B6E710B5D0E90FCE0168DCF8003062
:1008A0000A6823FA0EF35C072AD512F0040427D055
:1008B0000A68920603D40A6822F004020A602F2212
:1008C000C4F20202914240F20402C4F2020259DD73
:1008D0003023C4F20203994270D04423C4F20203CD
:1008E000994271D05823C4F20203994278D14FF44F
:1008F00080231360C16A002940F097806EE000BF3A
:100900009C0727D512F0020424D00A68920606D468
:100910000A6822F00A020A60012280F821202F22B0
:10092000C4F20202914240F20402C4F2020239DD32
:100930003023C4F2020399425ED04423C4F202037E
:1009400099425DD05823C4F2020399425ED14FF41C
:10095000003363E01B0741D512F0080208BF10BD49
:100960000A6822F00E020A60012101FA0EF2CCF8A8
:1009700004208163016B4FF480720029028454D1FA
:100980002CE000BF0823C4F20203994222D01C23AA
:10099000C4F20203994223D140231360C16A0029A3
:1009A00043D11BE00823C4F2020399422CD01C233C
:1009B000C4F20203994229D120232FE04FF480632F
:1009C0001360C16A89BB09E04FF480431360C16AB8
:1009D00059BB03E004231360C16A31BB10BD00BFE3
:1009E00002F168044FF08063A14208BF4FF4800316
:1009F0001360C16AC9B9F1E74FF400730EE000BF9C
:100A00004FF400530AE000BF022307E002F168043C
:100A10004FF00073A14208BF4FF400131360816AC6
:100A20000022002980F82020D8D0BDE810400847D7
:100A3000002804BF012070472DE9F04101684FF6FE
:100A4000F872CBF6FD724CF6CD430A44CCF6CC439B
:100A5000A2FB03236FF0030707EA93030027C4F206
:100A6000020700F1040E00F11008C0E90F739EE8C0
:100A7000045098E870010B6843F6F077BB431A43C3
:100A800042EA0C0242EA0E0222432A43324342EA7D
:100A900008020A6000214FF4807281630284BDE87D
:100AA000F041084670470000F0B590F820C0BCF156
:100AB000010F32D090F821C04FF0010EBCF1010FB0
:100AC00080F820E026D14FF0020C80F821C04FF0D2
:100AD000000CC0F838C0D0E900C4C56AC66BDCF8A9
:100AE0000070102C27F00107CCF80070006C0EFA93
:100AF00000F070600846CCF8043004BF10460A4687
:100B0000CCF80800CCF80C20DCF8000045B140F02F
:100B10000E000DE0002180F820100220F0BD00BF83
:100B200020F00400CCF80000DCF8000040F00A00DF
:100B3000CCF80000DCF8000040F00100CCF8000028
:100B40000020F0BDB0B5044600F01AF9054640F2A9
:100B50000400C2F200000078611C18BF044400BF0A
:100B600000F00EF9401BA042FAD3B0BD2DE9F04FC2
:100B700082B041F20042C4F201020E6804239042A6
:100B800008BF0323002E009300F0F68040F20C4EC5
:100B90004FF6FF7CC4F2010E00220124C1F2100CBA
:100BA0004FF0000A4FF0000943E000BF012502F0BA
:100BB0000C040F27A7402BEA070705FA04F43C436F
:100BC00043F82640D1F804B040F20045C4F20105D4
:100BD0005FEACB332B6854BF23EA080343EA0803D8
:100BE0002B606B685FEA8B3454BF23EA080343EA47
:100BF00008036B605FEACB24AB6854BF23EA0803A9
:100C000043EA08035FEA8B24AB60DEF800304FF064
:100C1000010454BF23EA080343EA0803CEF8003076
:100C20000E680AF1010A36FA0AF302F1040200F032
:100C3000A38004FA0AF816EA080FF1D04B6863455E
:100C400012DC122B56D8DFE803F0350B4549555519
:100C500055555555555555555555554D510000BF90
:100C6000D1F80C9046E000BF4FF6FF77C1F22107A4
:100C7000BB420FDC0027C1F21107BB421AD000278C
:100C8000C1F21207BB4215D00027C1F22107BB42B7
:100C900010D02FE00027C1F22207BB420AD0002764
:100CA000C1F23107BB4205D00027C1F23207BB4277
:100CB00020D100BF8B684BB1012B14BFC0F814804A
:100CC000C0F810804FF0080914E000BF4FF004098D
:100CD00010E000BFCB6803F108090BE04FF00009FA
:100CE00008E000BFCB6803F1040903E0CB6803F11F
:100CF0000C0900BF13460546BAF1080F24BF203B7C
:100D000004352E680F279F40BE4309FA03F333438F
:100D10002B60CB79DB067FF583AF41F21804C4F278
:100D2000020423684FEA9A0643F001032360236814
:100D300040F6000403F001030193019B40F20043DD
:100D4000C4F20103A3F57E7353F826B0C4F2010484
:100D5000A0420FD040F60044C4F20104A0423FF488
:100D600025AF41F20004C4F20104009DA04208BF77
:100D700002251CE700251AE702B0BDE8F08F00004D
:100D800040F22420C2F200000068704770B5B8B38A
:100D9000044690F83D0028B9002084F83C00204625
:100DA00000F09EF9242084F83D002068016821F0BD
:100DB00001010160016841F400410160016821F412
:100DC0000041016000F062FC48F28041C0F21E0167
:100DD00040F60013D4F804E088424FF00001C0F25E
:100DE0003D0348F2A16C4FF0000238BF0121984248
:100DF000C0F2010C38BF0122E64538BF0A460AB1ED
:100E0000012070BD4DF68361C4F21B31A0FB0112BD
:100E10002168950C4B684FF4967623F03F0343EA24
:100E20009243754344F6D3564B60C1F262060B6A97
:100E3000A5FB0656B50923F03F03E64538BF950CE0
:100E40006A1C1A430A62CA6948F2A0664CF6FF732C
:100E5000C0F20106B64522EA03020BD801384FEA78
:100E60004E03B0FBF3F001306FF31F30042898BF3E
:100E700004201EE0A368013863B119230EFB03F3BD
:100E8000B0FBF3F001306FF31F3078B100F5804014
:100E900008E000BF0EEB4E03B0FBF3F001306FF340
:100EA0001F3028B100F5004003E000BF012000E042
:100EB00001201043C8610868D4E9072320F0C0006E
:100EC000104318430860886848F2FF3204F10C06AA
:100ED00090434CCE18431043A5698860C86820F041
:100EE000FF0030432843C860086840F001000860F4
:100EF00000202021206484F83D10206384F83E0007
:100F000070BD00002DE9F04383B0994616460F46A8
:100F10000446FFF735FF94F83D1020291CD1054603
:100F200020688169890713D5FFF72AFF401B19281C
:100F3000F6D900202021206384F83D1084F83E007B
:100F4000216C41F02001216484F83C0004E000BFE2
:100F500094F83C10012903D1022003B0BDE8F083CE
:100F6000012284F83C200368DDE90B180A9ADB07AC
:100F700003D1036843F001030360036823F40063B3
:100F80000360212084F83D00402084F83E000020CA
:100F9000206462626185608D394620850020CFF62D
:100FA000FF70E062204632464B46CDF80080019546
:100FB00001F01EFF20B1012003B0BDE8F08300BFA7
:100FC000208D002850D0206808F10106014651F814
:100FD000142F12062CD49EB1B8F1000F5AD000BFC6
:100FE000086840055ED4FFF7CBFE401B404556D84D
:100FF0002068014651F8142F1206F1D518E000BF01
:101000000A6852054ED40A68120611D40A685205BD
:1010100048D40A6812060BD40A68520542D40A68FA
:10102000120605D40A6852053CD40A681206E7D5B0
:10103000626A114611F8013B0361238D6162591EFA
:101040002185678D013F678547697F070AD50F04B2
:1010500008D051780161911C6162991E2185628DD1
:10106000013A62850904B1D1204641462A4601F081
:10107000F9FF38BB2068016841F40071016020204D
:1010800084F83D00002084F83E0084F83C0003B062
:10109000BDE8F0830868400504D4FFF771FE202006
:1010A00004E000BF6FF4806008600420002120226B
:1010B000216384F83D2084F83E10226C10432064A4
:1010C00084F83C10206C04287FF475AF2068016818
:1010D00041F400710160012003B0BDE8F08300001D
:1010E00010B586B0006845F20042C4F2000200214B
:1010F0009042049102D006B010BD00BF41F2180426
:10110000C4F20204206802A940F0080020602068B0
:1011100000F00800019001984FF4407002901220F6
:1011200003900320059040F60040C4F20100FFF751
:101130001DFD0420C4F20100016841F0E06141F0AE
:1011400002010160606840F400106060606800F4B3
:1011500000100190019806B010BD000040F204009C
:1011600040F22421C2F20000C2F2000100780A68B5
:10117000104408607047000080B542F20000C4F2DD
:101180000200016841F010010160032000F08AF8BC
:101190000F2000F005F800F027F8002080BD0000C7
:1011A00070B540F20406C2F2000640F2280132781F
:1011B000C2F200014FF47A730968B3FBF2F20446FD
:1011C000B1FBF2F1084601F031F80F2C4FF00105A8
:1011D00008D838B94FF0FF3021460022002500F032
:1011E00035F87460284670BD82B041F21800C4F230
:1011F00002000168022241F001010160016801F072
:10120000010101910199416841F0805141604068BC
:1012100000F08050009000980420C4F201000168A2
:1012200062F31A61016002B070470000002848BFF5
:10123000704700F01F01012202FA01F14EF2001284
:101240004009CEF2000242F82010704710B54EF669
:101250000C5CCEF2000CDCF80030C3F3022E8EF0F2
:101260000704042C28BF0424BEF103034FF0FF3E03
:101270000EFA04F438BF0023A14399400EFA03F399
:101280009A43114300F00F02043A624409010C3200
:1012900000F16043B0F1FF3FC8BF03F56442117035
:1012A00010BD00004EF60C51CEF200010A684FF658
:1012B000FF031A4060F30A2242F0806040F0FD70A4
:1012C000086070472020C4F20E20012101607047A1
:1012D00080B5012818D0022836D0102832D141F22A
:1012E0000401C4F202010A6851F8040CC00129D5B6
:1012F000C2F383402DA3185CD2033DD440F6001204
:10130000C0F23D02504343E041F20400C4F2020047
:10131000C16940F202320A40B2F5817F04BF4FF446
:10132000004080BD01F44071B1F5407F1CD0B1F5A3
:10133000007F07D1006A49F64041800701EAE0706A
:1013400080BD00BF002080BD00F0B4F941F204016F
:10135000C4F2020109680222C1F3813102EB4101AA
:10136000B0FBF1F080BD00BF50F8040C4FF22441F7
:10137000800301EAE07080BD0A6810A3C2F3404216
:101380009A5C41F20023C0F27A03B3FBF2F25043BD
:101390000968490248BF80BD4AF6AB214000CAF641
:1013A000AA21A0FB0101480880BD00BF020304057B
:1013B000060708090A0B0C0D0E0F101001020000A1
:1013C0002DE9F04182B00446007841F21C06C007C6
:1013D000C4F202064AD0306810F0805808D1306854
:1013E00040F080503060306800F0805001900198EB
:1013F00047F20007C4F200073868C00512D4386805
:1014000040F480703860FFF7BBFC05463868C005C3
:1014100008D4FFF7B5FC401B6428F7D9032002B0BD
:10142000BDE8F081706810F4407012D0616801F47A
:10143000407188420DD0706840F24042C4F24222AE
:10144000012320F4407113600023C0071360716012
:101450002AD17068616820F440700843B8F1000F29
:10146000706003D1306820F08050306020688107C0
:1014700007D556F8181CA26821F44041114346F8DC
:10148000181CC00604D4002002B0BDE8F08100BFE3
:1014900056F8180CE16820F48000084346F8180C50
:1014A000002002B0BDE8F081FFF76AFC054641F27A
:1014B000883700BF70688007CBD4FFF761FC401B02
:1014C000B8424FF00300F5D9EBE700002DE9F043F7
:1014D00081B0002800F0858042F20008C4F20208C2
:1014E0000446D8F800000D4600F0070088420CD2F0
:1014F000D8F8000020F007002843C8F80000D8F80A
:10150000000000F00700A8426BD1206841F20409F6
:101510008107C4F2020917D5410705D5D9F8001093
:1015200041F4E061C9F80010010705D5D9F80010B1
:1015300041F46051C9F80010D9F80010A26821F0F8
:10154000F0011143C9F80010C00741D1D8F80000DC
:1015500000F00700A8420CD9D8F8000020F00700DE
:101560002843C8F80000D8F8000000F00700A8429F
:1015700037D12068410707D5D9F80010E26821F477
:10158000E0611143C9F80010000708D5D9F8000040
:10159000216920F4605040EAC100C9F80000D9F880
:1015A000002002F00C00082841F20020C0F27A006E
:1015B00050D145F65E53C2F38341C0F60003595C37
:1015C000D2033BD440F60010C0F23D00484341E056
:1015D000606802280AD001282AD159F8041C89031E
:1015E00008D4012001B0BDE8F08300BF59F8041C05
:1015F0008901F6D5D9F8001021F003010843C9F894
:101600000000FFF7BDFB064641F28837D9F800001D
:10161000616800F00C00B0EB810F97D0FFF7B0FBD2
:10162000801BB842F2D9032001B0BDE8F08300BFAF
:1016300059F8041C8907D4D5DCE700BFD9F800208D
:1016400044F24C53C2F34042C0F600039A5C484354
:10165000B0FBF2F0D9F8001044F24E52C1F303117E
:10166000C0F60002515C40F2280220FA01F140F27B
:101670000800C2F200000068C2F200021160FFF729
:101680008FFD002001B0BDE8F083000040F228008B
:1016900041F20401C2F20000C4F2020100680968CC
:1016A00044F25E52C1F30221C0F60002515CC84010
:1016B0007047000040F2280041F20401C2F200002D
:1016C000C4F202010068096844F25E52C1F3C2210B
:1016D000C0F60002515CC840704700002DE9F0419F
:1016E00082B0002868D00446007841F20006C007A6
:1016F000C4F2020625D0706800F00C0004281BD04C
:10170000706800F00C00082802D17068C00313D480
:101710006068002800F06881B0F5A02F00F07C819F
:10172000B0F5803F00F07C81306820F4803030607C
:10173000306820F4802076E13068800301D560684D
:10174000D0B32078800718D5706810F00C0F07D040
:10175000706800F00C0008286ED17068C0036BD46C
:101760003068800702D52069012825D13068616979
:1017700020F0F80040EAC1003060207800071FD454
:101780002078400732D4E56995B1706800F00C000C
:10179000082840F08F80012D0ED07068216A00F477
:1017A00080328A4208D1616A00F47010884203D105
:1017B000002002B0BDE8F081012002B0BDE8F08158
:1017C000A069002862D00020C4F242200121C0F8A4
:1017D0008014FFF7D5FA0546706A800700F18C8007
:1017E000FFF7CEFA401B0228F6D92AE1F06910F083
:1017F000805808D1F06940F08050F061F06900F045
:1018000080500090009847F20007C4F20007386843
:10181000C00529D4386840F480703860FFF7B0FA0A
:10182000054600BF3868C0051ED4FFF7A9FA401B63
:101830006428F7D905E100BF2069002840F20000C4
:10184000C4F2422000F0828001210160FFF798FA83
:10185000054600BF306880073FF588AFFFF790FA74
:10186000401B0228F6D9ECE0E068002800F08080F8
:10187000052800F09780012800F09880306A20F059
:1018800001003062306A20F0040092E00020C4F2CF
:1018900042200021C0F88014FFF772FA054600BF0D
:1018A000706A80077FF56CAFFFF76AFA401B022869
:1018B000F6D9C6E00027C4F2422700203866FFF7B9
:1018C0005FFA022D05460BD13068800140F1BE80E1
:1018D000FFF756FA401B02284FF00300F4D968E7DF
:1018E000306880017FF564AFFFF74AFA401B022899
:1018F0004FF00300F4D95CE740F22800C2F2000088
:10190000006844F6D351C1F26201A0FB0101480A0C
:10191000019000BF00BF0198411E002801913FF4D3
:101920002FAF00BF0198411E002801913FF428AF5E
:1019300000BF0198411E002801913FF421AF00BF74
:101940000198411E00280191E4D119E700210160AE
:10195000FFF716FA054600BF306880077FF50DAF28
:10196000FFF70EFA401B02284FF00300F4D920E7DE
:10197000306A20F001003062306A20F004003062EA
:10198000FFF7FEF9054641F2883700BF306A80074D
:1019900020D5FFF7F5F9401BB8424FF00300F5D909
:1019A00007E700BF306A40F004003062306A40F060
:1019B00001003062FFF7E4F9054641F2883700BFC5
:1019C000306A800706D4FFF7DBF9401BB842F7D92D
:1019D00037E000BFB8F1000F7FF4D5AEF06920F01A
:1019E0008050F061CFE600BF306820F48030306076
:1019F000306820F480203060FFF7C2F9054600BF50
:101A0000306880037FF59DAEFFF7BAF9401B64286C
:101A10004FF00300F4D9CCE6306840F48020306009
:101A2000306840F480303060FFF7AAF9054600BF07
:101A3000306880033FF585AEFFF7A2F9401B6428AC
:101A4000F6D9032002B0BDE8F08100BF206AB0F5EE
:101A5000803F05D17168A26821F4003111437160A3
:101A60007168626A21F474111043084370600120A8
:101A70003866FFF785F90446306880013FF598AE77
:101A8000FFF77EF9001B02284FF00300F4D990E61F
:101A900070B582B0064600208DF80600ADF804004F
:101AA000002E4FF001004DD00C4600294AD01546BB
:101AB00001A93046002200F04BF818B1012002B015
:101AC00070BD00BF337B717BB07BF27B2370E27013
:101AD0006170A070C5B3A2F10A03DEB24FF0CD0C65
:101AE00006FB0CF6F50A05EB8505A3EB450301257E
:101AF00005EBD626092A88BF43EA0612E270A1F157
:101B00000A02D3B203FB0CF3DE0A06EB8606A2EB55
:101B1000460205EBD323092988BF42EA031161700D
:101B2000A0F10A01CAB202FB0CF2D30A03EB830351
:101B3000A1EB430105EBD222092888BF41EA02103C
:101B4000A070002002B070BD002002B070BD000087
:101B50002DE9F047064600284FF0010000F0A5806F
:101B60000C46002900F0A18030684168490700F167
:101B7000D98091468269C169836948F6890583EAFB
:101B800002073F041CBFC1691A4689B241EA0241FB
:101B90004BF2C532C9F2A212A1FB0223DA0A4FF4BA
:101BA000616302FB13139FB26F437D0D65702D01BE
:101BB000A5EB5757A3EB870345F28017C0F2010747
:101BC000B942A37036D344F20753CCF22E23A1FBC3
:101BD00003374AF6AB23CAF6AA23A2FB03352B0927
:101BE00003EB4303A2EBC3022270026A406A4FEA8E
:101BF000174880B240EA0240451A98BF4FF0FF35BF
:101C0000421C4AF68062CFF6FE7208FB021A08BF39
:101C10000546FFF7B5F8074630684168890647D49E
:101C2000FFF7AEF8C01BB0F57A7FF5D90120BDE80B
:101C3000F08700BF2270B9F1000F00F09F8021787B
:101C4000CD26A1F10A03DFB27743FD0A05EB850536
:101C50006278A3EB45030125A07805EBD727092976
:101C600088BF43EA07112170A2F10A01CBB2734386
:101C7000DF0A07EB8707A1EB470105EBD323092A0E
:101C800088BF41EA0312A0F10A016270CAB272432E
:101C9000D30A03EB8303A1EB430105EBD22209280E
:101CA00088BF41EA0210A0700020BDE8F08700BFA5
:101CB000416841F0100141604FEA1A4181611FFA09
:101CC0008AF1C161416821F010014160FFF758F8C5
:101CD000074600BF30684068800609D4FFF750F817
:101CE000C01BB0F57A7FF5D90120BDE8F08700BFB1
:101CF000681C11D05544FFF743F807463068416827
:101D0000890613D4FFF73CF8C01BB0F57A7F4FF07B
:101D10000100F3D9C9E700BF30464FF0FF3102F0B0
:101D200083F818B30120BDE8F08700BF416841F097
:101D300010014160290C0162A9B24162416821F0A1
:101D400010014160FFF71CF8074600BF306840688B
:101D500080060BD4FFF714F8C01BB0F57A7F4FF064
:101D6000010088BFBDE8F087F0E700BF304641467C
:101D700001F008FFB9F1000F7FF461AF0020BDE86A
:101D8000F087000070B500286AD00446407C20B976
:101D900000202074204600F073F802206074206850
:101DA000416821F008014160FEF7EAFF064600BFE6
:101DB00020684568FEF7E4FF290705460ED4A81BF6
:101DC000B0F57A7FF4D9012504206074284670BDEF
:101DD000FEF7D6FF401BB0F57A7FF4D8216848683B
:101DE0008006F5D5486846F62C4240F01000486061
:101DF0004868C4F2000220F007004860A06818B1EB
:101E0000536823F001035360136823F4607318438D
:101E100010606068421C06D101200125FFF758FAC6
:101E200050B3216801388A6822F00F0242EA10425A
:101E30008A60CA6860F30F02CA60486820F0100028
:101E40004860FEF79DFF054620684068800609D47B
:101E5000FEF796FF401BB0F57A7FF5D9B3E700BFD8
:101E6000012070BD40F201100025A4F80D000120F2
:101E7000E5736074284670BD04206074284670BD08
:101E800080B582B0006842F60001C4F200018842C9
:101E900002D002B080BD00BFFFF714FA41F21C006F
:101EA000C4F20200016841F0006101600068012194
:101EB00000F000600190019840F23C40C4F24220E2
:101EC000016002B080BD0000F0B581B0044600287A
:101ED0004FF0010018BF002902D101B0F0BD00BFD2
:101EE000207C01284FF00200F7D001232374607496
:101EF000CB78BAB1180900EB800003F00F0202EBB7
:101F0000400348788A78070907EB870700F00F003D
:101F100000EB4707100900EB800002F00F0202EB14
:101F2000400001E04F788878E373DAB2FBB21726FD
:101F3000022F06FB03F36773A07309D8DBB23927BE
:101F40007B434FEA532C02F2CF7740F2D47E08E075
:101F50004EF28F36734302F5FA674FEAD34C40F2E4
:101F6000D27EC0B21044BD0841F27B4370446B4343
:101F70003D0940F63E2600EB97007543A0EB534029
:101F800000EB1540604482B242F293435A43A0EB07
:101F900012439BB25B0803EB12429208A2EBC2020F
:101FA00010442268207308709169D06993690026F3
:101FB00083EA01073F041CBFD069194680B240EA9A
:101FC000014045F69071C0F2010188421AD344F2F3
:101FD0000751CCF22E21A0FB0112110C40F2A322DA
:101FE0005143A0EBC117FEF7CBFE054620684168C0
:101FF00089060DD4FEF7C4FE401BB0F57A7FF5D9F3
:1020000020E000BF012100206174267401B0F0BD02
:10201000416841F010014160390C8161B9B2C16180
:10202000416821F010014160FEF7AAFE054600BF9D
:102030002068416889060BD4FEF7A2FE401BB0F56C
:102040007A7FF5D9012004216174267401B0F0BDB6
:10205000016A406A80B240EA0140B84230D200F5DD
:10206000803000F5A347FEF78BFE054620684168E7
:10207000890607D4FEF784FE401BB0F57A7FF5D9B8
:10208000E0E700BF416841F010014160390C016296
:10209000B9B24162416821F010014160FEF770FE63
:1020A00005462068406880060AD4FEF769FE411B99
:1020B0000120B1F57A7F4FF00401F2D9A4E700BF07
:1020C000002001216174267401B0F0BD70B5044692
:1020D00000284FF0010018BF002901D170BD00BFDA
:1020E000207C01284FF0020008BF70BD012323743B
:1020F0006074087802B3020902EB820200F00F005C
:1021000000EB4200C0B24FF4616250434A788978D4
:10211000130903EB830302F00F0202EB4302D2B276
:10212000C2EB021200EB82000A0902EB820201F00C
:102130000F0101EB420108E04FF4616250434A781D
:102140008978C2EB021200EB8200C9B24618FEF792
:1021500017FE054620684168890607D4FEF710FE81
:10216000401BB0F57A7FF5D91AE000BF416841F015
:1021700010014160310C8161B1B2C161416821F04F
:1021800010014160FEF7FCFD054600BF2068416874
:1021900089060BD4FEF7F4FD401BB0F57A7FF5D924
:1021A0000120042161740021217470BD416821F077
:1021B00005014160016A406A80B240EA0140B042D4
:1021C0002ED200F5803000F5A346FEF7D9FD054676
:1021D00020684168890607D4FEF7D2FD401BB0F5A0
:1021E0007A7FF5D9DCE700BF416841F0100141601A
:1021F000310C0162B1B24162416821F010014160CD
:10220000FEF7BEFD054600BF20684068800607D483
:10221000FEF7B6FD401BB0F57A7FF5D9C0E700BFE9
:102220000020012161740021217470BD411E002035
:10223000B0EB116F1CBF012070474EF21002CEF2BE
:10224000000251604EF62351CEF20001F0230B70D4
:102250000721906011607047B0B590F83C20012ACA
:1022600004BF0220B0BD01F108053CCDD1E900CE8C
:1022700023F47C5322F470521A432EF4F0431A4391
:102280002CF4E0431A4324F4C0431A432A43C96997
:1022900022F48042036811435964002180F83C1005
:1022A0000846B0BD10B590F83C20012A4FF002025C
:1022B00033D080F83D200268D2F804E0D2F808C09C
:1022C0000C682EF07003234340F2FF74C4F2000444
:1022D000A24253600ADCB2F1804F13D040F20043B7
:1022E000C4F200039A420DD011E000BF42F6004351
:1022F000C4F201039A4205D040F60003C4F2000381
:102300009A4204D149682CF080031943916001215D
:10231000002280F83D1080F83C20104610BD0000DF
:10232000002804BF0120704710B5044690F83D0016
:1023300028B9002084F83C00204600F067F802200D
:1023400084F83D00206840F2FF730268C4F2000385
:1023500042F6004C9842C4F2010C15DCB0F1804FFB
:102360001AD040F20041C4F20001884214D09842D1
:1023700018DCB0F1804F1DD040F20041C4F20001E2
:10238000884217D01AE000BF604505D040F6000132
:10239000C4F200018842EAD1A16822F070020A4327
:1023A0009842E6DD604505D040F60001C4F2000128
:1023B000884203D1216922F440720A43A36922F0C2
:1023C0008001D4F804E0E268194360450160C2620C
:1023D000C0F828E002D16169CCF8301001214161D8
:1023E000002084F8461084F83E1084F83F1084F8EA
:1023F000401084F8411084F8421084F8431084F8A7
:10240000441084F8451084F83D1010BD81B0006878
:1024100042F60041C4F20101884201D001B0704788
:1024200041F21800C4F20200016841F40061016049
:10243000006800F400600090009801B07047000050
:1024400080B590F83C20012A4FF0020200F0BF80D6
:1024500080F83D20D0F800C04FF67772DCF80830E5
:1024600023EA0202CCF808200B683F2B1CDD5F2B0F
:1024700020DD602B50D0B3F5005F6DD0702B40F0A5
:10248000A080D1E901E3C968DCF8082043EA0E0323
:1024900022F47F4243EA01211143CCF80810DCF812
:1024A000081041F077018AE01F2B29DC63B3102B61
:1024B0002AD086E0402B63D0502B40F08280D1F8A8
:1024C00004E0C968DCF82030DCF8202022F00102AA
:1024D000CCF82020DCF8182022F0F00242EA0111AA
:1024E00023F00A0242EA0E02CCF81810CCF82020A1
:1024F000DCF8081041F0570121F020015FE000BF37
:10250000202B01D0302B5CD1DCF8081021F07001B9
:10251000194341F0070152E0D1F804E0C968DCF842
:10252000203023F01003CCF82030DCF81830DCF831
:10253000202023F4704322F0A00243EA013142EA52
:102540000E12CCF81810CCF82020DCF8081041F05E
:10255000670121F0100132E0D1E901E3C968DCF83C
:10256000082043EA0E0322F47F4243EA012111438B
:10257000CCF80810DCF8081041F480411FE000BFDF
:10258000D1F804E0C968DCF82030DCF8202022F023
:102590000102CCF82020DCF8182022F0F00242EAF8
:1025A000011123F00A0242EA0E02CCF81810CCF80E
:1025B0002020DCF8081041F0470121F03001CCF870
:1025C00008100121002280F83D1080F83C201046C0
:1025D00080BD00002DE9F04390F83C30012B04BF92
:1025E0000220BDE8F0834FEAB202032A00F2E58040
:1025F000DFE802F0023A76B0036842F600461A6A53
:10260000C4F2010622F001021A621D6A1A465C68D1
:1026100052F818CFB3428E68D1F800E025F00205D9
:1026200045EA06050CD1CE68D1E9057824F440745A
:1026300025F00C0526F004063C43354344EA080423
:102640002CF0730747EA0E075C609F614F680969C9
:102650005F631D629F6947F008079F619F6927F0CC
:1026600004079F61A6E000BF036842F600461A6AAD
:10267000C4F2010622F010021A621D6A1A46D3F84B
:1026800004C052F8184FB3428E68D1F800E025F02C
:10269000200545EA06150FD1CE68D1E905986FF0FF
:1026A000400707EA06162CF4406725F0C00547EA04
:1026B0008907354347EA880C24F4E64444EA0E27A8
:1026C000C3F804C09F614F6809699F631D629F69D9
:1026D00047F400679F619F6927F480679F6168E006
:1026E000036842F600461A6AC4F2010622F48072B8
:1026F0001A621D6A1A46D3F804C052F81CEFB3429E
:102700008E680C6825F4007545EA06250FD1CE6861
:10271000D1E90598360240F2FF47BE432CF44057FA
:1027200025F4406547EA0917354347EA081C2EF0AF
:1027300073072743C3F804C0DF614F680969DF638B
:102740001D62DF6947F00807DF61DF6927F00407D2
:10275000DF612FE0036842F600471A6AC4F20107FE
:1027600022F480521A621A46D3F820C05D6852F8EB
:102770001C4FD1F800E08E68BB4204D14F6925F4AC
:10278000804545EA87152CF4005747EA063724F4BC
:10279000E64646EA0E265D60DE614E6809691E6403
:1027A0001F62DF6947F40067DF61DF6927F4806734
:1027B000DF610902136819431160002180F83C10A1
:1027C0000846BDE8F0830000002804BF01207047E0
:1027D00010B5044690F83D0028B9002084F83C006C
:1027E000204600F067F8022084F83D00206840F29F
:1027F000FF730268C4F2000342F6004C9842C4F230
:10280000010C15DCB0F1804F1AD040F20041C4F247
:102810000001884214D0984218DCB0F1804F1DD0DE
:1028200040F20041C4F20001884217D01AE000BF14
:10283000604505D040F60001C4F200018842EAD1AB
:10284000A16822F070020A439842E6DD604505D097
:1028500040F60001C4F20001884203D1216922F44C
:1028600040720A43A36922F08001D4F804E0E268D0
:10287000194360450160C262C0F828E002D1616975
:10288000CCF8301001214161002084F8461084F812
:102890003E1084F83F1084F8401084F8411084F80A
:1028A000421084F8431084F8441084F8451084F8EA
:1028B0003D1010BD7047000041B1082910D0042917
:1028C00014BF00F1410200F13F020BE090F83E20FE
:1028D000012A1CBF01207047022280F83E2013E02D
:1028E00000F140021278012A1CBF01207047022229
:1028F000082907D0042914BF80F8412080F83F2020
:1029000002E000BF80F84020006801F01F010122B2
:10291000036A8A4023EA02010162036A42F64441E3
:10292000C4F201011A43A1F14403984202620FD09C
:1029300040F2FF71C4F20001884213DCB0F1804F15
:102940001CD040F20041C4F20001884216D01CE0C5
:102950000A6842F400420A6040F2FF71C4F20001CA
:102960008842EBDD42F60041C4F20101884205D005
:1029700040F60001C4F20001884206D1816801F0EE
:102980000701062904BF00207047016841F00101DA
:102990000160002070470000002804BF012070473C
:1029A00010B5044690F83D0028B9002084F83C009A
:1029B000204600F05FF8242084F83D002068D4E928
:1029C0000212C36823F40053C360036923F4405325
:1029D0001A430261D4E904231143C268194341F246
:1029E0000C639A431143C1604169A26921F44071AB
:1029F000114343F60002C4F201029042416103D048
:102A0000FEF744FE02E000BFFEF754FE62681921A3
:102A100048439100B0FBF1F048F21F51C5F2EB11B1
:102A2000A0FB01235A096FF0630302FB030032236A
:102A300003EB0010A0FB0101F02303EA511320680F
:102A400003EB0212C1F3431111448160016921F4C7
:102A500090410161416921F02A014161C16841F45D
:102A60000051C16000202021206484F83D1084F8CA
:102A70003E1010BD70B586B040F60044C4F20104AB
:102A8000006804F5305100268842049602D006B052
:102A900070BD00BF41F21800C4F20200016802AD2F
:102AA00041F480410160016801F480410191019984
:102AB000016841F0080101600068294600F0080043
:102AC000019001984020029002200390032005907D
:102AD0002046FEF74BF88020CDE902062046294625
:102AE0000496FEF743F80420C4F20100016841F0A7
:102AF000E06141F00401016006B070BD2DE9F043D2
:102B000081B0044690F83E0020280DD10E460029E1
:102B10004FF0010000F08E801746002A00F08A80F6
:102B200094F83C00012803D1022001B0BDE8F083F5
:102B3000012084F83C004FF0000922201D46C4F813
:102B4000409084F83E00C4F83090FEF719F9A7854C
:102B5000E785A1680746B1F5805F0BD120690028A1
:102B60001CBF30464E46B046064684F83C90E08D89
:102B700038B95BE04FF0000884F83C90E08D002805
:102B800054D005F101090BE0406800266FF35F2087
:102B900028F8020BE08D0138E085E08D002845D053
:102BA0002068016889060DD4B9F1000F18D04DB323
:102BB000FEF7E6F8C11B2068A94223D80168890600
:102BC000F6D500BF002EDFD0A168B1F5805F15D02B
:102BD00009B9216991B1406800F07F000FE000BFA2
:102BE00001688906EED4016889065CBF01685FEA66
:102BF0008161E7D401688906F2D5E3E7406806F809
:102C0000010BC7E7C16821F4D071C160416921F0AF
:102C100001014161202084F83D0084F83E0000203D
:102C200084F83C00032001B0BDE8F083202084F844
:102C30003E00002001B0BDE8F08300002DE9F04324
:102C400081B0044690F83D0020280DD10F460029A0
:102C50004FF0010000F092801646002A00F08E80AE
:102C600094F83C00012803D1022001B0BDE8F083B4
:102C7000012084F83C004FF0000921201D46C4F8D3
:102C8000409084F83D00FEF77BF8A684E684A168B6
:102C90008046B1F5805F25D1206900281CBF3846E9
:102CA0004F463E46074684F83C90E08C00B3681CD3
:102CB00020D0002D66D120680BE000BF36F8021B43
:102CC00000276FF35F214160E18C0139E184E18CE1
:102CD00081B30168090675D5002FEFD017F8011BE5
:102CE000F1E700BF002684F83C90E08C0028DED19C
:102CF00020681FE0206802E00168090609D4016825
:102D0000090606D4016809065CBF01685FEA016133
:102D1000F2D51FB117F8011B05E000BF36F8021B02
:102D200000276FF35F214160E18C0139E184E18C80
:102D30000029E4D1016849061CD4002D42D0691C49
:102D40000ED10168490615D4016849065CBF0168C7
:102D50005FEA41610ED401684906F2D50AE000BF7E
:102D6000FEF70EF8A0EB08012068A9422AD80068F7
:102D70004006F5D5202084F83D00002001B0BDE8D4
:102D8000F08300BF206800BF0168090608D4FDF782
:102D9000F7FFA0EB08012068A942F5D912E000BFB7
:102DA00017B117F8011B04E036F8021B00276FF378
:102DB0005F214160E18C0139E184E18C0029E3D19C
:102DC000B8E700BFC16821F4D071C160416921F04A
:102DD00001014161202084F83D0084F83E0000207C
:102DE00084F83C00032001B0BDE8F083FEE700005A
:102DF0002DE9F04381B00446006890460268099DC1
:102E000042F4807202604269089E9946D2070F46DA
:102E10001DD1711C11D0002E00F0D280FDF7B0FF43
:102E2000401BB04200F2CE8020684169C907F5D04E
:102E30000DE000BF4169C90709D14169C90706D141
:102E40004169C90704BF41695FEAC171F2D007F067
:102E5000FE0101614169890738D44169721C01F49E
:102E6000806111D049BB002E00F0E880FDF788FF9B
:102E7000401BB04200F2E48020684169890725D4F4
:102E800041694905F2D518E0B9B9416989071DD4EE
:102E90004169490511D44169890717D44169490538
:102EA0000BD44169890711D44169490505D44169A9
:102EB00089070BD441694905E7D5016841F40071E0
:102EC00001606FF4806141610420BAE0002100914B
:102ED000014651F8142F00924A680092009A0A683D
:102EE00012061ED4002E00F08580721C4DD10A6897
:102EF000520500F187800A68120612D40A6852054A
:102F000000F180800A6812060BD40A68520579D451
:102F10000A68120605D40A68520573D40A681206B4
:102F2000E5D5B9F1010F43D04FEA182101610146FF
:102F300051F8142F12063BD4002E5BD0721C29D1FD
:102F40000A6852055ED40A68120631D40A6852052E
:102F500058D40A6812062BD40A68520552D40A685B
:102F6000120625D40A6852054CD40A681206E7D521
:102F70001EE000BFFDF704FF401BB0423FD82068B1
:102F8000014651F8142F1206CBD408684005F1D53C
:102F900038E000BF0868400534D4FDF7F1FE401B5F
:102FA000B0422CD82068014651F8142F1206F1D5F2
:102FB0005FFA88F10161002001B0BDE8F08300BF35
:102FC000FDF7DEFE00202021206384F83D1084F808
:102FD0003E00216C41F020012164216884F83C000E
:102FE0000868C00544BF4FF400702064032001B09E
:102FF000BDE8F0830868400504D4FDF7C1FE202039
:1030000004E000BF6FF480600860042000212022EB
:10301000216384F83D2084F83E10226C1043206424
:1030200084F83C10206C042817D12068016841F412
:1030300000710160012001B0BDE8F083FDF7A0FE42
:10304000202000212022216384F83D2084F83E10B6
:10305000226C1043206484F83C10012001B0BDE8CC
:10306000F083000070B50368044653F8140F40075E
:1030700037D40E46F1B1701C24D100BF186840054A
:1030800032D4186840072CD4186840052CD418682E
:10309000400726D41868400526D41868400720D475
:1030A0001868400520D4186840074FF0000048BF5A
:1030B00070BDE3E71868400516D4FDF761FE2020D7
:1030C00016E000BF154600BF186840050CD4FDF798
:1030D00057FE401BB042F2D8236853F8140F400744
:1030E000F2D5002070BD00BF6FF48060186004202E
:1030F00000212022216384F83D2084F83E10226CB8
:1031000010432064012084F83C1070BDB0B584B039
:1031100040F2BC0042F20041C2F20000C4F20101E0
:1031200000254FF4807201244FF46023C0E900159C
:10313000032104730575C36182600161FDF718FA0C
:10314000002818BFFDF7BCF840F2BC00C2F2000036
:1031500001A9CDE901540395FDF7BAF8002818BF7D
:10316000FDF7AEF80120019040F2BC000224C2F24B
:10317000000001A90294FDF7ABF8002818BFFDF785
:103180009FF80320029040F2BC00C2F2000001A9A7
:103190000194FDF79DF8002818BFFDF791F804B0E1
:1031A000B0BD000080B582B041F21400C4F202004C
:1031B0000168002241F0010101600068002100F077
:1031C0000100019001980B20FEF740F80B2002B09F
:1031D000BDE88040FEF72AB881B041F21800C4F281
:1031E0000200016841F010010160016801F0100166
:1031F00000910099016841F020010160016801F02F
:10320000200100910099016841F00401016001680A
:1032100001F0040100910099016841F0080101608A
:10322000006800F008000090009801B070470000AE
:1032300080B540F2301045F20041C2F20000C4F205
:10324000000148F2A06200234FF4804CC0F201025A
:1032500080E80E00C0E9033CC0E90533C0E907334C
:10326000FDF794FD002808BF80BDBDE88040FDF754
:1032700027B8000010B582B040F20630C2F2253007
:10328000009040F2841042F60001C2F20000C4F245
:1032900000014FF0FF32002480E81600FEF772FDB7
:1032A000002818BFFDF70CF82320ADF8040040F209
:1032B0008410C2F2000001A901228DF80640FEF739
:1032C00005FF002818BFFCF7FBFF40F28410C2F294
:1032D000000069460122FEF7F7FD002818BFFCF741
:1032E000EFFF02B010BD000070B59CB042F6004583
:1032F00040F29810C4F201050021C2F200004722FA
:103300004FF6FF731691CDE914111191CDE90F110C
:10331000CDE90D11CDE90B11CDE90911CDE9071169
:10332000CDE90511CDE90311CDE90111C0E9005244
:10333000C0E90213C0E904118161FEF7F1FF002822
:1033400018BFFCF7BDFF4FF48050139040F2981067
:10335000C2F2000013A9FFF773F8002818BFFCF7AA
:10336000AFFF40F29810C2F20000FFF72DFA0028DC
:1033700018BFFCF7A5FF40F298100024C2F200002D
:1033800010A9CDE91044FEF78DFF002818BFFCF707
:1033900097FF6020CDE9090440F29810C2F20000C6
:1033A00009A90022CDE90B44CDE90D440F94FFF7A4
:1033B00011F9002818BFFCF783FF40F29810C2F201
:1033C000000009A90422FFF705F9002818BFFCF73F
:1033D00077FF40F29810C2F2000009A90822FFF717
:1033E000F9F8002818BFFCF76BFF40F298144FF46F
:1033F0000050C2F200040026069001A9204605965E
:10340000CDE90366CDE901660896FEF725FF0028A1
:1034100018BFFCF755FF20681A96A84202D01CB0CE
:1034200070BD00BF41F21800C4F20200016841F013
:1034300004010160006818A900F0040017901798B3
:103440004FF4E0601890022019901B90A5F51050E1
:10345000FDF78CFB1CB070BD80B540F2E01043F668
:103460000001C2F20000C4F2010100234FF00C0C75
:103470004FF4165280E80E00C0E90333C0E905C3DB
:10348000C361FFF789FA002808BF80BDBDE880400E
:10349000FCF716BFFEE70000FEE700002DE9F04F45
:1034A00085B040F2301400254FF480760127C2F237
:1034B00000040DF1120B0DF113084FF0000900BFCD
:1034C00009F1B0008DF8100004A8CDE900072046EE
:1034D0007821002201230296FDF714FD0DF1110061
:1034E000CDE9000720467821002201238DF81150F4
:1034F0000296FDF707FD10208DF812002046782176
:1035000000220123CDE900B70296FDF7FBFC4FF046
:10351000000A00BF20467821402201238DF8135075
:10352000CDE900870296FDF7EDFC0AF101004FFAA4
:1035300080FABAF1FF3FEDDCB9F1070F09F101099B
:10354000BED305B0BDE8F08F80B5C820FDF7FAFA0C
:10355000BDE8804000F0A0BC2DE9F04F89B00646E0
:1035600040B20D460028A2F1200744BF02350026D4
:10357000102BA5F1500040F03F8140F230148DF83F
:1035800018004FF0010906A8C2F200044FF4807839
:10359000CDE900092046782100220123CDF80880DA
:1035A000FDF7B0FC3009103005908DF819000DF1D1
:1035B0001900CDE900092046782100220123CDF829
:1035C0000880FDF79FFC06F00F0004908DF81A00AC
:1035D0000DF11A00CDE900092046782100220123CF
:1035E000CDF80880FDF78EFCF8B244F28E7201012E
:1035F000C0F60002515C02EB00168DF81B100DF1B5
:103600001B072046782140220123CDE90079CDF81F
:103610000880FDF777FC7078317996F802A096F86B
:1036200003B003918DF81B0020467821402201232E
:10363000CDE90079CDF80880FDF764FC20467821BB
:10364000402201238DF81BA0CDE90079CDF8088038
:10365000FDF758FC20467821402201238DF81BB04D
:10366000CDE90079CDF80880FDF74CFC039878216E
:103670008DF81B00204640220123CDE90079CDF8CA
:103680000880FDF73FFC707978218DF81B002046FB
:1036900040220123CDE90079CDF80880FDF732FC06
:1036A000B07978218DF81B00204640220123CDE916
:1036B0000079CDF80880FDF725FCF07978218DF8A8
:1036C0001B00204640220123CDE90079CDF8088077
:1036D000FDF718FCA5F14F008DF81C0007A8CDE9F7
:1036E00000092046782100220123CDF80880FDF74B
:1036F00009FC059878218DF81D000DF11D00CDE91C
:103700000009204600220123CDF80880FDF7FAFBCE
:10371000049878218DF81E000DF11E00CDE90009F6
:10372000204600220123CDF80880FDF7EBFB307A1C
:103730000DF11F058DF81F0020467821402201233E
:10374000CDE90059CDF80880FDF7DCFB707A7821CF
:103750008DF81F00204640220123CDE90059CDF805
:103760000880FDF7CFFBB07A78218DF81F00204646
:1037700040220123CDE90059CDF80880FDF7C2FBB6
:10378000F07A78218DF81F00204640220123CDE9F0
:103790000059CDF80880FDF7B5FB307B78218DF816
:1037A0001F00204640220123CDE90059CDF80880B2
:1037B000FDF7A8FB707B78218DF81F002046402282
:1037C0000123CDE90059CDF80880FDF79BFBB07BC4
:1037D00078218DF81F00204640220123CDE90059B1
:1037E000CDF80880FDF78EFBF07BCDE900598DF810
:1037F0001F00204689E000BF40F2301B8DF82000FA
:103800004FF0010A08A8C2F2000B4FF48078CDE90E
:10381000000A5846782100220123CDF80880FDF7E0
:1038200071FB300910308DF821000DF12100CDE938
:10383000000A5846782100220123CDF80880FDF7C0
:1038400061FB06F00F008DF822000DF12200CDE99A
:10385000000A5846782100220123CDF80880FDF7A0
:1038600051FBF8B244F2665100EB4000C0F6000193
:1038700011F8102001EB40058DF823200DF12306EF
:103880005846782140220123CDE9006ACDF808800E
:10389000FDF738FB6878AF78EC7895F804908DF8F0
:1038A00023005846782140220123CDE9006ACDF853
:1038B0000880FDF727FB58467821402201238DF828
:1038C0002370CDE9006ACDF80880FDF71BFB584650
:1038D0007821402201238DF82340CDE9006ACDF8FC
:1038E0000880FDF70FFB58467821402201238DF810
:1038F0002390CDE9006ACDF80880FDF703FB6879D5
:10390000CDE9006A8DF82300584678214022012332
:10391000CDF80880FDF7F6FA09B0BDE8F08F000099
:103920002DE9F04F87B00646A1F1500040F2301566
:103930008DF81400012705A8C2F200051446049171
:103940004FF4807ACDE90007284678210022012330
:10395000CDF808A0FDF7D6FA300900F110080DF1F6
:103960001500CDE9000728467821002201238DF8B3
:103970001580CDF808A0FDF7C5FA0DF1160006F088
:103980000F0BCDE9000728467821002201238DF88E
:1039900016B0CDF808A0FDF7B5FA44F66E51C4EBA9
:1039A0000420C0F6000101EB40064FF0FF340DF19A
:1039B000170900BF3019407878218DF81700284684
:1039C00040220123CDE90097CDF808A0FDF79AFA2F
:1039D00001341F2CEED1049840F230144F388DF88A
:1039E00018004FF0010A06A8C2F200044FF48079D3
:1039F000CDE9000A2046782100220123CDF8089065
:103A0000FDF780FA0DF11900CDE9000A2046782172
:103A1000002201238DF81980CDF80890FDF772FA85
:103A20000DF11A00CDE9000A204678210022012379
:103A30008DF81AB0CDF80890FDF764FAFE250DF167
:103A40001B0700BF7019407878218DF81B002046B5
:103A500040220123CDE9007ACDF80890FDF752FA13
:103A60000135B5F58F7FEDD107B0BDE8F08F0000CF
:103A70002DE9F04F85B0002B049103907CD00E9877
:103A80001C464508981E009058421746591E4FF094
:103A900000085FFA80FB42F2107900264FF0000A1E
:103AA0000291019212E000BF0126039940F030021A
:103AB00005FB08110E9BC8B20499D2B2FFF74CFD6A
:103AC00008F10108A0450AF1010A55D06FEA0A0081
:103AD000C0B2584502D101202AE000BF00996FEA28
:103AE0000800A1EB0801C9B2032900EB040101D2CF
:103AF000012009E001F0FC02002301200433DFB2C1
:103B0000974200FB09F0F9D1019F11F003010FD09A
:103B1000012903D100EB8000400009E04FF47A72E4
:103B2000424302294FF0640108BF00FB01F2104636
:103B3000B7FBF0F04CF6CD41CCF6CC41A0FB011226
:103B4000D10801EB8101002EA0EB4100ADD102991B
:103B50004145AADD0028A7D10398049905FB080078
:103B60000E9BC0B22022FFF7F7FC002608F10108E7
:103B7000A0450AF1010AA9D105B0BDE8F08F000007
:103B8000704700002DE9F043427B837B90F80FC023
:103B9000002900F0D380012901F0010E18D1BEF1F7
:103BA000000F00F0CB800C2A00F2C8800121914068
:103BB00041F2AA57394200F0B7801F2BC0F0B980FC
:103BC0000C2A40F0B9800CF1010C0122B5E000BFD5
:103BD00045F6294945F628474DF20B7821F00101B9
:103BE000012441F2AA55CCF28F29C0F28F27C0F2EE
:103BF000A30802E001330239D1D00C2A16D804FA06
:103C000002F62E4208D01E2B0BD90C2A0CD10CF137
:103C1000010C012209E000BF16F4256F1ED01D2BF8
:103C200002D8013302E000BF013201230C2AE2D89E
:103C300004FA02F62E4209D01F2BDBD30C2A0AD13C
:103C40000CF1010C01220123D5E700BF16F4256F0A
:103C50000CD01E2BCED301320123CCE7022AE5D1B2
:103C60001B2B0BD801330222E0E700BF022AC2D18E
:103C70001C2B0DD201330222BDE700BF1D2B0DD03E
:103C80001C2B0FD15FEA8C7216D000222FE000BFF0
:103C90000AD01D2B0ED101230322ACE701230322FE
:103CA000C4E700BF0222C1E75FEA8C720ED0002297
:103CB0002FE000BF02229EE71FFA8CF202FB09F2FE
:103CC0004FEAB203BB420BD9012210E01FFA8CF27B
:103CD00002FB09F24FEAB203BB4213D9012218E0FA
:103CE0004FEA321242454FF0000238BF0122002A4B
:103CF0004FF002024FF01D0308BF032208BF01234B
:103D000094E700BF4FEA321242454FF0000238BF3D
:103D10000122002A4FF002024FF01D0308BF0322C8
:103D200008BF012367E700BF11F4256F44D01E2BA5
:103D300002D2013302E000BF01320123D1B242734B
:103D40001722022902FB01F180F80FC0837309D802
:103D5000C9B239225143490A0CF2CF7240F2D477EA
:103D600008E000BF4EF28F3779430CF5FA62C90CB8
:103D700040F2D277DBB248F21F566344C5F2EB162D
:103D80003B44A2FB066503EB9202A2EB551202EB49
:103D9000D512114444F62512C2F29242A1FB02232D
:103DA000CA1A03EB52029308DB00A3EB9202891AB2
:103DB0000173BDE8F08300BF022ABFD11C2B03D2E0
:103DC00001330222BAE700BF04D01D2B08D1012322
:103DD0000322B3E75FEA8C7104D001211CE000BF2D
:103DE0000222ABE745F629421FFA8CF1CCF28F2272
:103DF0004A4345F628434FEAB201C0F28F23994265
:103E00004FF0000108D84DF20A734FEA3212C0F2A7
:103E1000A3039A4288BF012102221D23002918BF53
:103E2000032218BF012389E770B50D460446FCF74D
:103E3000A7FF064620684168890607D4FCF7A0FF63
:103E4000801BB0F57A7FF5D9012070BD416841F043
:103E500010014160290C0162A9B24162416821F060
:103E600010014160FCF78CFF054600BF20684068E8
:103E7000800607D4FCF784FF401BB0F57A7FF5D9A4
:103E8000012070BD002070BD70470000FDF766B9CD
:103E900070470000FEE70000F0B583B040F2301438
:103EA00040F20C07C2F200044FF480750126C2F202
:103EB00000072046782100220123CDE900760295F3
:103EC000FDF720F8781CCDE9000620467821002275
:103ED00001230295FDF716F8B81CCDE9000620462F
:103EE0007821002201230295FDF70CF8F81CCDE99A
:103EF000000620467821002201230295FDF702F8F2
:103F0000381DCDE9000620467821002201230295C4
:103F1000FCF7F8FF781DCDE9000620467821002245
:103F200001230295FCF7EEFFB81DCDE900062046FF
:103F30007821002201230295FCF7E4FFF81DCDE96A
:103F4000000620467821002201230295FCF7DAFFC3
:103F500007F10800CDE90006204678210022012360
:103F60000295FCF7CFFF07F10900CDE900062046D6
:103F70007821002201230295FCF7C4FF07F10A0013
:103F8000CDE9000620467821002201230295FCF7A6
:103F9000B9FF07F10B00CDE9000620467821002289
:103FA00001230295FCF7AEFF07F10C00CDE90006F6
:103FB00020467821002201230295FCF7A3FF07F198
:103FC0000D00CDE90006204678210022012302954C
:103FD000FCF798FF07F10E00CDE900062046782196
:103FE000002201230295FCF78DFF07F10F00CDE9B8
:103FF000000620467821002201230295FCF782FF6B
:1040000007F11000CDE900062046782100220123A7
:104010000295FCF777FF07F11100CDE90006204675
:104020007821002201230295FCF76CFF07F11200B2
:10403000CDE9000620467821002201230295FCF7F5
:1040400061FF07F11300CDE9000620467821002228
:1040500001230295FCF756FF07F11400CDE9000695
:1040600020467821002201230295FCF74BFF07F13F
:104070001500CDE900062046782100220123029593
:10408000FCF740FF07F11600CDE900062046782135
:10409000002201230295FCF735FF07F11700CDE957
:1040A000000620467821002201230295FCF72AFF12
:1040B00007F11800CDE900062046782100220123EF
:1040C0000295FCF71FFF07F11900CDE90006204615
:1040D0007821002201230295FCF714FF07F11A0052
:1040E000CDE9000620467821002201230295FCF745
:1040F00009FF03B0F0BD000080B582B0019040F22E
:10410000E010C2F2000001A901224FF6FF73FEF792
:1041100095FD019802B080BD96B0FDF72DF8052001
:1041200000240C904FF480300225CDE90D04CDE938
:1041300013504FF4E010012115900CA8CDE9114463
:104140000694CDE90F11FDF7C9FA28B1EFF31080FD
:1041500072B600BFFEE700BF0F20CDE907054FF4A0
:104160008060CDE90A0407A802210994FDF7AEF9A1
:1041700020B1EFF3108072B6FEE700BF032003907A
:104180004FF4807004904FF40040059003A8FDF7B1
:1041900017F928B1EFF3108072B600BFFEE700BF39
:1041A000FFF71AF8FEF7FEFFFFF756F9FFF79CF846
:1041B000FEF7ACFFFFF75EF8FFF73AF8FFF7C4F938
:1041C000FFF76CF9202000210022FFF7A9FB302027
:1041D00000210122FFF7A4FB402000210222FFF76B
:1041E0009FFB502000210322FFF79AFB2020022191
:1041F0000422FFF795FB302002210522FFF790FBF8
:10420000402002210622FFF78BFB502002210722CB
:10421000FFF786FB40F2440840F2BC00C2F20008FF
:10422000C2F2000041461E22FCF7A8FA40F29814A0
:10423000C2F2000420460021FEF73EFB2046042186
:10424000FEF73AFB20460821FEF736FB40F2300924
:10425000C2F2000909F101004CF6CD4B029009F1C0
:1042600004004FF0100ACCF6CC4B019040F2E01065
:10427000C2F200000CA901224FF6FF73FEF73EFCCC
:1042800040F29810C2F2000000680021416381638F
:10429000C16340F28414C2F2000402992046002255
:1042A000FDF756FC019920460022FDF7F1FB99F835
:1042B0000700042100F5FA6218200423CDF800A0BD
:1042C000FFF7D6FB382004212D221023FFF744F9F5
:1042D00099F80520402004210223CDF800A0FFF723
:1042E000C7FB502004212D221023FFF735F999F840
:1042F0000620582004210223CDF800A0FFF7B8FBC8
:1043000099F80120202006210223CDF800A0FFF714
:10431000AFFB302006213A221023FFF71DF999F850
:104320000220382006210223CDF800A0FFF7A0FBD1
:10433000482006213A221023FFF70EF999F80320AE
:10434000502006210223CDF800A0FFF791FB98E84A
:10435000EF00D8F81C401844294400EB070CD8E9BA
:104360000837324401EB040ED8E90A65D8E90C405D
:10437000D8F838101A440CEB07030EEB06072A4452
:10438000234438441144A3FB0B23A0FB0B02A1FBE5
:104390000B070F2089F80000990809F1080092081E
:1043A000BB080EC001A000F007F85FE725642C25CC
:1043B000642C2564000000000FB4054B10B503A960
:1043C000044A029800F018F810BC5DF814FB0000D5
:1043D000F94000080000002002E008C8121F08C1D0
:1043E000002AFAD170477047002001E001C1121F76
:1043F000002AFBD1704700002DE9FF4F89B09B4692
:104400000446002506E025280BD05A460B99904714
:10441000641C6D1C20780028F5D10DB02846BDE83D
:10442000F08F0027B8460122474900E0074314F8FF
:10443000013F203B02FA03F00842F7D120782E28F2
:1044400019D114F8010F47F004072A280ED06FF095
:104450002F022078A0F1300109290CD808EB88013F
:1044600002EB410100EB0108641CF2E70A98641CAE
:1044700050F8048B0A9020780028CED0642808D009
:10448000692806D075281ED05A460B9990476D1C96
:1044900058E00A994FF00A0901C90A91002802DA86
:1044A00040422D2102E0390504D52B218DF8201042
:1044B000012103E0F90704D02021F7E78A4608AE7E
:1044C0000DE00021FAE70A994FF00A0901C90A91A3
:1044D000F7E74946FBF726FE303106F8011D0028B4
:1044E000F7D1ADEB060000F12009780701D44FF0B9
:1044F0000108C84502DDA8EB090000E00020804665
:10450000002706E008A85A46C05D0B9990476D1C2D
:104510007F1C5745F6DB04E030205A460B99904744
:104520006D1CB8F10001A8F10108F5DC05E016F8F2
:10453000010B5A460B9990476D1CB9F10001A9F186
:104540000109F4DC641C65E7092801000102000090
:104550000000000000000102030406070809000033
:104560000000010203040000000000000000002F12
:10457000000000000700070000147F147F140024CF
:104580002A7F2A12006264081323003649552250FC
:1045900000000503000000001C2241000000412231
:1045A0001C000014083E08140008083E080800001B
:1045B00000A0600000080808080800006060000013
:1045C000002010080402003E5149453E0000427F91
:1045D0004000004261514946002141454B310018DD
:1045E00014127F10002745454539003C4A4949309F
:1045F0000001710905030036494949360006494959
:10460000291E000036360000000056360000000863
:104610001422410000141414141400004122140840
:1046200000020151090600324959513E007C121125
:10463000127C007F49494936003E41414122007FBA
:104640004141221C007F49494941007F0909090174
:10465000003E4149497A007F0808087F0000417FF9
:104660004100002040413F01007F08142241007FAB
:1046700040404040007F020C027F007F0408107F12
:10468000003E4141413E007F09090906003E41517B
:10469000215E007F09192946004649494931000138
:1046A000017F0101003F4040403F001F2040201F8C
:1046B000003F4038403F006314081463000708704F
:1046C000080700615149454300007F414100005502
:1046D0002A552A55000041417F00000402010204CE
:1046E00000404040404000000102040000205454BB
:1046F0005478007F4844443800384444442000380B
:104700004444487F00385454541800087E0901027C
:104710000018A4A4A47C007F080404780000447D51
:104720004000004080847D00007F1028440000008D
:10473000417F4000007C04180478007C0804047861
:1047400000384444443800FC24242418001824244D
:1047500018FC007C08040408004854545420000449
:104760003F444020003C4040207C001C2040201C56
:10477000003C4030403C004428102844001CA0A0CD
:10478000A07C004464544C44141414141414000009
:104790000000000000000000000000000000000019
:1047A00000F800000000000000333000000000109E
:1047B0000C06100C0600000000000000000040C0C5
:1047C0007840C0784000043F04043F0404000070B7
:1047D00088FC08300000001820FF211E0000F008AF
:1047E000F000E018000000211C031E211E0000F054
:1047F0000888700000001E2123241927211010169C
:104800000E0000000000000000000000000000009A
:1048100000E0180402000000000718204000000219
:104820000418E0000000004020180700000040408D
:1048300080F0804040000202010F010202000000EF
:1048400000F0000000000101011F01010100000053
:1048500000000000000080B07000000000000000B8
:104860000000000000000001010101010101000041
:1048700000000000000000303000000000000000D8
:10488000000080601804006018060100000000E0CD
:1048900010080810E000000F102020100F0000107A
:1048A00010F8000000000020203F202000000070D1
:1048B00008080888700000302824222130000030C9
:1048C0000888884830000018202020110E000000C1
:1048D000C02010F8000000070424243F240000F842
:1048E0000888880808000019212020110E0000E027
:1048F000108888180000000F112020110E000038C9
:104900000808C83808000000003F000000000070E0
:10491000880808887000001C222121221C0000E069
:1049200010080810E0000000312222110F000000E2
:1049300000C0C00000000000003030000000000097
:104940000080000000000000806000000000000007
:1049500080402010080000010204081020004040A0
:1049600040404040400004040404040404000008E3
:104970001020408000000020100804020100007098
:1049800048080808F0000000003036010000C03080
:10499000C828E810E0000718272423140B000000A3
:1049A000C038E0000000203C23020227382008F82D
:1049B000888888700000203F202020110E00C03021
:1049C000080808083800071820202010080008F8F8
:1049D00008080810E000203F202020100F0008F8F1
:1049E0008888E8081000203F20202320180008F8BD
:1049F0008888E8081000203F200003000000C03035
:104A000008080838000007182020221E020008F8B5
:104A100008000008F808203F210101213F2000087C
:104A200008F8080800000020203F202000000000B7
:104A30000808F8080800C08080807F00000008F89F
:104A400088C028180800203F20012638200008F8D8
:104A5000080000000000203F20202020300008F83F
:104A6000F800F8F80800203F003F003F200008F859
:104A700030C00008F808203F200007183F00E01071
:104A800008080810E0000F10202020100F0008F880
:104A900008080808F000203F210101010000E01093
:104AA00008080810E0000F18242438504F0008F8B8
:104AB000888888887000203F2000030C3020007018
:104AC0008808080838000038202121221C00180816
:104AD00008F8080818000000203F2000000008F82F
:104AE00008000008F808001F202020201F00087878
:104AF000880000C83808000007380E010000F808D8
:104B000000F80008F800033C0700073C0300081801
:104B100068808068180820302C03032C3020083867
:104B2000C800C83808000000203F2000000010081E
:104B30000808C83808002038262120201800000066
:104B400000FE020202000000007F40404000000C16
:104B500030C000000000000000010638C000000264
:104B60000202FE000000004040407F000000000004
:104B70000402020204000000000000000000000027
:104B80000000000000008080808080808080000223
:104B9000020400000000000000000000000000000F
:104BA0008080808000000019242222223F2008F803
:104BB000008080000000003F112020110E00000046
:104BC000008080800000000E1120202011000000D5
:104BD00000808088F800000E112020103F20000087
:104BE000808080800000001F22222222130000808B
:104BF00080F0888888180020203F202000000000D6
:104C0000808080808000006B94949493600008F80A
:104C1000008080800000203F210000203F20008095
:104C20009898000000000020203F20200000000095
:104C300000809898000000C08080807F000008F805
:104C4000000080808000203F24022D3020000008DA
:104C500008F8000000000020203F20200000808095
:104C6000808080808000203F20003F20003F8080A7
:104C7000008080800000203F210000203F200000B5
:104C8000808080800000001F202020201F00808066
:104C900000808000000080FFA12020110E00000095
:104CA000008080808000000E112020A0FF80808086
:104CB00080008080800020203F2120000100000033
:104CC0008080808080000033242424241900008008
:104CD00080E0808000000000001F20200000808015
:104CE000000000808000001F202020103F208080D6
:104CF00080000080808000010E3008060100808066
:104D00000080008080800F300C030C300F0000808A
:104D10008000808080000020312E0E3120008080B5
:104D200080000080808080818E70180601000080E5
:104D30008080808080000021302C22213000000003
:104D40000000807C020200000000003F40400002A2
:104D5000027C800000000040403F00000000000096
:104D60000000FF00000000000000FF0000001094A1
:104D700053321E325210007E4242427E000000003A
:104D80000000000000000000000000000000000023
:104D90000000000000000000000000000000000013
:104DA0000000000000000000000000000000000003
:104DB00000000000000000000000000000000000F3
:104DC00000000000000000000000000000000000E3
:104DD00000000000000000000000000000000000D3
:104DE00000000000000000000000000000000000C3
:104DF00000000000000000000000000000000000B3
:104E000000000000000000000000000000000000A2
:104E10000000000000000000000000000000000092
:104E20000000000000000000000000000000000082
:104E30000000000000000000000000000000000072
:104E40000000000000000000000000000000000062
:104E50000000000000000000000000000000000052
:104E60000000000000000000000000000000000042
:104E7000FF49494949494949FF0000000000000035
:104E80000000000000000000000000000000000022
:104E90000000000000000000000000000000000012
:104EA0000000000000000000000000000000000002
:104EB00000000000000000000000000000000000F2
:104EC00000000000000000000000000000000000E2
:104ED00000000000000000000000000000000000D2
:104EE00000000000000000000000000000000000C2
:104EF00000000000000000000000000000000000B2
:104F000000000000000000000000000000000000A1
:104F10000000000000000000000000000000000091
:104F20000000000000000000000000000000000081
:104F30000000000000000000000000000000000071
:104F40000000000000000000000000000000000061
:104F50000000000000000000000000000000000051
:104F600000000000000000000000000008CC4A49DA
:104F7000484ACC18007F88888482E0000000000046
:104F80000000000000000000000000000000000021
:104F90000000000000000000000000000000000011
:104FA0000000000000000000000000000000000001
:104FB00000000000000000000000000000000000F1
:104FC00000000000000000000000000000000000E1
:104FD00000000000000000000000000000000000D1
:104FE00000000000000000000000000000000000C1
:104FF00000000000000000000000000000000000B1
:1050000000000000000000000000000000000000A0
:105010000000000000000000000000000000000090
:105020000000000000000000000000000000000080
:105030000000000000000000000000000000000070
:105040000000000000000000000000000000000060
:105050000000000000000000000000000000000050
:10506000000000000000000000000000FF121252CB
:10507000927F00007E88888482E0000000000000AB
:105080000000000000000000000000000000000020
:105090000000000000000000000000000000000010
:1050A0000000000000000000000000000000000000
:1050B00000000000000000000000000000000000F0
:1050C00000000000000000000000000000000000E0
:1050D00000000000000000000000000000000000D0
:1050E00000000000000000000000000000000000C0
:1050F00000000000000000000000000000000000B0
:10510000000000000000000000000000000000009F
:10511000000000000000000000000000000000008F
:10512000000000000000000000000000000000007F
:10513000000000000000000000000000000000006F
:10514000000000000000000000000000000000005F
:10515000000000000000000000000000000000004F
:105160000000000000000000000000FE424242FE7D
:105170000042A29E82A2C2BE000000000000000009
:10518000000000000000000000000000000000001F
:10519000000000000000000000000000000000000F
:1051A00000000000000000000000000000000000FF
:1051B00000000000000000000000000000000000EF
:1051C00000000000000000000000000000000000DF
:1051D00000000000000000000000000000000000CF
:1051E00000000000000000000000000000000000BF
:1051F00000000000000000000000000000000000AF
:10520000000000000000000000000000000000009E
:10521000000000000000000000000000000000008E
:10522000000000000000000000000000000000007E
:10523000000000000000000000000000000000006E
:10524000000000000000000000000000000000005E
:10525000000000000000000000000000000000004E
:10526000000000000000000000806F080828CF0048
:10527000002FC8080828CF00000000000000000030
:10528000000000000000000000000000000000001E
:10529000000000000000000000000000000000000E
:1052A00000000000000000000000000000000000FE
:1052B00000000000000000000000000000000000EE
:1052C00000000000000000000000000000000000DE
:1052D00000000000000000000000000000000000CE
:1052E00000000000000000000000000000000000BE
:1052F00000000000000000000000000000000000AE
:10530000000000000000000000000000000000009D
:10531000000000000000000000000000000000008D
:10532000000000000000000000000000000000007D
:10533000000000000000000000000000000000006D
:10534000000000000000000000000000000000005D
:10535000000000000000000000000000000000004D
:10536000000000000000000000FC444444FC000079
:10537000FE22222222FE00000000000000000000A9
:10538000000000000000000000000000000000001D
:10539000000000000000000000000000000000000D
:1053A00000000000000000000000000000000000FD
:1053B00000000000000000000000000000000000ED
:1053C00000000000000000000000000000000000DD
:1053D00000000000000000000000000000000000CD
:1053E00000000000000000000000000000000000BD
:1053F00000000000000000000000000000000000AD
:10540000000000000000000000000000000000009C
:10541000000000000000000000000000000000008C
:10542000000000000000000000000000000000007C
:10543000000000000000000000000000000000006C
:10544000000000000000000000000000000000005C
:10545000000000000000000000000000000000004C
:1054600000000000000000000F0404048F40300F13
:10547000020242827F0000000000000000000000E5
:10548000000000000000000000000000000000001C
:10549000000000000000000000000000000000000C
:1054A00000000000000000000000000000000000FC
:1054B00000000000000000000000000000000000EC
:1054C00000000000000000000000000000000000DC
:1054D00000000000000000000000000000000000CC
:1054E00000000000000000000000000000000000BC
:1054F00000000000000000000000000000000000AC
:10550000000000000000000000000000000000009B
:10551000000000000000000000000000000000008B
:10552000000000000000000000000000000000007B
:10553000000000000000000000000000000000006B
:10554000000000000000000000000000000000005B
:10555000000000000000000000000000000000004B
:10556000000000000000101010FF9020984828094B
:105570000E2848A8180000000000000000000000ED
:10558000000000000000000000000000000000001B
:10559000000000000000000000000000000000000B
:1055A00000000000000000000000000000000000FB
:1055B00000000000000000000000000000000000EB
:1055C00000000000000000000000000000000000DB
:1055D00000000000000000000000000000000000CB
:1055E00000000000000000000000000000000000BB
:1055F00000000000000000000000000000000000AB
:10560000000000000000000000000000000000009A
:10561000000000000000000000000000000000008A
:10562000000000000000000000000000000000007A
:10563000000000000000000000000000000000006A
:10564000000000000000000000000000000000005A
:10565000000000000000000000000000000000004A
:1056600000000000000242817F0040404242427E32
:105670004242424000000000000000000000000024
:10568000000000000000000000000000000000001A
:10569000000000000000000000000000000000000A
:1056A00000000000000000000000000000000000FA
:1056B00000000000000000000000000000000000EA
:1056C00000000000000000000000000000000000DA
:1056D00000000000000000000000000000000000CA
:1056E00000000000000000000000000000000000BA
:1056F00000000000000000000000000000000000AA
:105700000000000000000000000000000000000099
:105710000000000000000000000000000000000089
:105720000000000000000000000000000000000079
:105730000000000000000000000000000000000069
:105740000000000000000000000000000000000059
:105750000000000000000000000000000000000049
:105760000000000040504E4848FF48484840F800BC
:1057700000FF00000000000000000000000000002A
:105780000000000000000000000000000000000019
:105790000000000000000000000000000000000009
:1057A00000000000000000000000000000000000F9
:1057B00000000000000000000000000000000000E9
:1057C00000000000000000000000000000000000D9
:1057D00000000000000000000000000000000000C9
:1057E00000000000000000000000000000000000B9
:1057F00000000000000000000000000000000000A9
:105800000000000000000000000000000000000098
:105810000000000000000000000000000000000088
:105820000000000000000000000000000000000078
:105830000000000000000000000000000000000068
:105840000000000000000000000000000000000058
:105850000000000000000000000000000000000048
:1058600000000000003E0202FF12221E000F4080D6
:105870007F000000000000000000000000000000A9
:105880000000000000000000000000000000000018
:105890000000000000000000000000000000000008
:1058A00000000000000000000000000000000000F8
:1058B00000000000000000000000000000000000E8
:1058C00000000000000000000000000000000000D8
:1058D00000000000000000000000000000000000C8
:1058E00000000000000000000000000000000000B8
:1058F00000000000000000000000000000000000A8
:105900000000000000000000000000000000000097
:105910000000000000000000000000000000000087
:105920000000000000000000000000000000000077
:105930000000000000000000000000000000000067
:105940000000000000000000000000000000000057
:105950000000000000000000000000000000000047
:105960000000000022322AA6A26221110981010052
:105970000000000000000000000000000000000027
:105980000000000000000000000000000000000017
:105990000000000000000000000000000000000007
:1059A00000000000000000000000000000000000F7
:1059B00000000000000000000000000000000000E7
:1059C00000000000000000000000000000000000D7
:1059D00000000000000000000000000000000000C7
:1059E00000000000000000000000000000000000B7
:1059F00000000000000000000000000000000000A7
:105A00000000000000000000000000000000000096
:105A10000000000000000000000000000000000086
:105A20000000000000000000000000000000000076
:105A30000000000000000000000000000000000066
:105A40000000000000000000000000000000000056
:105A50000000000000000000000000000000000046
:105A600000004222130B42827E02020A12234600E9
:105A70000000000000000000000000000000000026
:105A80000000000000000000000000000000000016
:105A90000000000000000000000000000000000006
:105AA00000000000000000000000000000000000F6
:105AB00000000000000000000000000000000000E6
:105AC00000000000000000000000000000000000D6
:105AD00000000000000000000000000000000000C6
